:100000000C9463000C940C0B0C94E50A0C948B007C
:100010000C948B000C948B000C948B000C948B0034
:100020000C948B000C948B000C948B000C94520C51
:100030000C948B000C948B000C948B000C948B0014
:100040000C949B0A0C948B000C94690A0C94430A40
:100050000C948B000C948B000C948B000C948B00F4
:100060000C94330B0C948B0000000000230026003E
:10007000290000000000240027002A0000000000E2
:10008000250028002B0004040404040404040202D4
:100090000202020203030303030301020408102007
:1000A0004080010204081020010204081020000012
:1000B0000008000201000003040700000000000027
:1000C00000000E0D381211241FBECFEFD8E0DEBFA6
:1000D000CDBF12E0A0E0B1E0EAE1F1E302C005909B
:1000E0000D92A832B107D9F724E0A8E2B2E001C02E
:1000F0001D92A230B207E1F710E0C2E6D0E004C0E2
:100100002197FE010E947916C136D107C9F70E94D6
:10011000C20D0C9480180C9400002091AD0281E077
:10012000213208F044C08091D4028111FCCF80912B
:10013000AC0292E09093D40291E09093D3029FEFAF
:100140009093D2021092D1022093D002ACE8B2E098
:10015000EEEAF2E090E0291331C01092CF029091C4
:10016000CF02880F892B8093CF028091CE028130FD
:1001700049F51092CE028091CF028093BB0080910E
:10018000BC0083FDF8CF85EC8093BC008091D40245
:100190008230E1F38091D2028F3FB1F08091D202A0
:1001A0008032A1F08091D202803391F084E01092ED
:1001B0008B021092AD0210928A0208953D91319304
:1001C0009F5FC9CF85EEE0CF80E0F1CF82E0EFCF37
:1001D00083E0EDCF089508950895AF92BF92CF9236
:1001E000DF92EF92FF920F931F93CF93DF936C01F7
:1001F0007B018B01040F151FEB015E01AE18BF08D8
:10020000C017D10759F06991D601ED91FC91019089
:10021000F081E02DC6010995892B79F7C501DF91A1
:10022000CF911F910F91FF90EF90DF90CF90BF90F3
:10023000AF900895FC01538D448D252F30E0842F1D
:1002400090E0821B930B541710F0CF9608950197FE
:100250000895FC01918D828D981761F0A28DAE0FEB
:10026000BF2FB11D5D968C91928D9F5F9F73928F72
:1002700090E008958FEF9FEF08952FB7F894809145
:10028000F7029091F802A091F902B091FA022FBF03
:100290008093030390930403A0930503B093060394
:1002A0008BEF92E00E94290197FF26C02FB7F894A8
:1002B0008091F7029091F802A091F902B091FA02B0
:1002C0002FBF409103035091040360910503709187
:1002D0000603841B950BA60BB70B4091FF025091B0
:1002E0000003609101037091020384179507A6072C
:1002F000B707B0F28FEF9FEF0895FC01918D828DCB
:10030000981731F0828DE80FF11D858D90E00895EA
:100310008FEF9FEF0895FC01918D228D892F90E042
:10032000805C9F4F821B91098F73992708958BEFF3
:1003300092E00E948B0121E0892B09F420E0822FBA
:10034000089580E090E0892B29F00E9497018111A7
:100350000C9400000895FC01A48DA80FB92FB11DC5
:10036000A35ABF4F2C91848D90E001968F739927EB
:10037000848FA689B7892C93A089B1898C918370C9
:1003800080648C93938D848D981306C00288F389C2
:10039000E02D80818F7D80830895EF92FF920F93EF
:1003A0001F93CF93DF93EC0181E0888F9B8D8C8D21
:1003B00098131AC0E889F989808185FF15C09FB715
:1003C000F894EE89FF896083E889F98980818370D8
:1003D000806480839FBF81E090E0DF91CF911F9187
:1003E0000F91FF90EF900895F62E0B8D10E00F5FA8
:1003F0001F4F0F731127E02E8C8D8E110CC00FB67E
:1004000007FCFACFE889F989808185FFF5CFCE0115
:100410000E94AB01F1CFEB8DEC0FFD2FF11DE35AE4
:10042000FF4FF0829FB7F8940B8FEA89FB89808198
:100430008062CFCFCF93DF93EC01888D8823B9F012
:10044000AA89BB89E889F9898C9185FD03C08081DF
:1004500086FD0DC00FB607FCF7CF8C9185FFF2CF5C
:10046000808185FFEDCFCE010E94AB01E9CFDF9106
:10047000CF910895833081F028F4813099F0823053
:10048000A9F008958730A9F08830C9F08430B1F41C
:10049000809180008F7D03C0809180008F77809352
:1004A0008000089584B58F7784BD089584B58F7DCD
:1004B000FBCF8091B0008F778093B000089580913A
:1004C000B0008F7DF9CF1F93CF93DF93282F30E0BB
:1004D000F901E255FF4F8491F901E656FF4FD4919F
:1004E000F901EA57FF4FC491CC23A9F0162F8111CF
:1004F0000E943A02EC2FF0E0EE0FFF1FE458FF4F8E
:10050000A591B4918FB7F894EC91111108C0D095D2
:10051000DE23DC938FBFDF91CF911F910895DE2BF7
:10052000F8CF1092D6021092D50210928B02109240
:10053000AD021092D40281E08093D3021092CE02D9
:1005400061E082E10E94630261E083E10E94630254
:10055000E9EBF0E080818E7F808380818D7F8083D6
:1005600088E48093B80085E48093BC008AEE90E034
:1005700090938902809388028BEE90E0909387029B
:10058000809386020895CF93DF9390E0FC01E656B6
:10059000FF4F24918A579F4FFC0184918823D1F00B
:1005A00090E0880F991FFC01EE58FF4FA591B49180
:1005B000FC01E458FF4FC591D49161110EC09FB763
:1005C000F8948C91E22FE0958E238C932881E2237E
:1005D000E8839FBFDF91CF9108958FB7F894EC9196
:1005E000E22BEC938FBFF6CF3FB7F89480916E0269
:1005F00090916F02A0917002B091710226B5A89BF4
:1006000005C02F3F19F00196A11DB11D3FBFBA2FA4
:10061000A92F982F8827BC01CD01620F711D811D64
:10062000911D42E0660F771F881F991F4A95D1F7E9
:1006300008958F929F92AF92BF92CF92DF92EF92E6
:10064000FF926B017C010E94F4024B015C01C1141A
:10065000D104E104F104B9F00E94F40268197909A7
:100660008A099B09683E73408105910580F321E06A
:10067000C21AD108E108F10888EE880E83E0981EBE
:10068000A11CB11CE4CFFF90EF90DF90CF90BF9002
:10069000AF909F908F9008950895DC01ED91FC91AB
:1006A0000480F581E02D0994CF92DF92EF92FF92C2
:1006B0000F931F93CF93DF9300D000D000D0CDB71E
:1006C000DEB76C017B018A018CE0898326E030E093
:1006D00041E050E0BE016F5F7F4F88E993E00E94E8
:1006E0004D0349815A812B813C818D819E81F60188
:1006F00051834083F70131832083F8019183808304
:1007000026960FB6F894DEBF0FBECDBFDF91CF9116
:100710001F910F91FF90EF90DF90CF900895CF93AE
:10072000DF9300D0CDB7DEB789836A8330E020E065
:1007300042E050E0BE016F5F7F4F88E993E00E9486
:100740004D030F900F90DF91CF910895CF93DF93DA
:100750001F92CDB7DEB7698321E030E041E050E081
:10076000BE016F5F7F4F0E944D0389810F90DF9123
:10077000CF910895CF93C82F63E488E993E00E9456
:10078000A603887F6C2F682B83E4CF910C948F0392
:1007900090E080E0089508958091D5029091D6026E
:1007A000891B990B089508954F925F926F927F92E3
:1007B0008F929F92AF92BF92CF92DF92EF92FF9271
:1007C0000F931F93CF93DF93782E642E522E07E062
:1007D00010E0912CEE24E394F12CC62FD0E0CE0152
:1007E00082559F4F6C01FE01E656FF4F5F01CA57CD
:1007F000DF4F990C60E0872D0E946302B701002E45
:1008000001C0660F0A94EAF76521862D0E946302F3
:1008100061E0872D0E946302F6018491F5018490C6
:10082000FE014490442081F081110E943A02E42D9F
:10083000F0E0EE0FFF1FE859FF4FA591B4918C91A6
:10084000882211F0689490F80150110990F6892DD2
:10085000DF91CF911F910F91FF90EF90DF90CF909C
:10086000BF90AF909F908F907F906F905F904F90D0
:100870000895089585ED8093BC008091BC0084FDAF
:10088000FCCF1092D402089520914902260F3327FD
:10089000331F21323105ECF42091D402FC0190E0A9
:1008A00080E0243069F082E00895A091490221910E
:1008B000AC01475D5D4FA40FB52FB11D2C93019680
:1008C000861798F380914902680F6093490280E08F
:1008D000089581E00895E091D6028091D502E8174D
:1008E00030F4F0E0E952FD4F808190E008958FEF01
:1008F0009FEF08959091D6028091D5022FEF3FEFA0
:10090000981748F4E92FF0E0E952FD4F208130E0DC
:100910009F5F9093D602C9010895CF92DF92EF9224
:10092000FF920F931F93CF93DF937C01CB018A013A
:1009300020918A02222389F0EB016B01C40ED51E9F
:10094000CC15DD0569F06991D701ED91FC9101901D
:10095000F081E02DC7010995F3CF642F0E94440474
:10096000C801DF91CF911F910F91FF90EF90DF9021
:10097000CF900895CF93DF931F92CDB7DEB76983F1
:1009800020918A022223F9F02091AD02203258F002
:1009900021E030E0FC013383228390E080E00F907F
:1009A000DF91CF91089580918B02E82FF0E0E4571A
:1009B000FD4F998190838F5F80938B028093AD026E
:1009C00081E090E0ECCF61E0CE0101960E9444040A
:1009D000F7CFCF93DF93D82FC62F8091FA038823C8
:1009E000C9F08091FB0391E090938A028093AC025E
:1009F00010928B021092AD026D2F84EA93E00E9458
:100A0000BA046C2F84EA93E00E94BA04DF91CF917C
:100A10000C948D0060E08091F9030E9463022D2FF9
:100A20004091F7036091F8038091F6030E94D4038C
:100A30002C2F4091F7036091F8038091F6030E94F8
:100A4000D40361E08091F903DF91CF910C946302AC
:100A500090E080E00895CF92DF92EF92FF92CF93E3
:100A6000DF93EC01603282E07807CCF5653B7105DD
:100A700014F064EB70E0898128E830E0281B31092C
:100A800087FD3395220F331F220F331F6901330F68
:100A9000EE08FF088A8128E532E0281B310987FD2E
:100AA0003395220F331F220F331F032E000C440BEC
:100AB000550B2C193D094E095F09DB0177FF02C078
:100AC000B0E0A0E00E94DF1424EB30E040E050E012
:100AD0000E94B514C20ED31EE41EF51EB601E881B5
:100AE000EC3070F5298188E890E0821B910927FDA0
:100AF0009395880F991F880F991F681779077CF0C5
:100B00002A8188E592E0821B910927FD9395880F41
:100B1000991F880F991F681779070CF4CB0102976A
:100B2000880F991F4FB7F8942E2F30E0F901EE0F80
:100B3000FF1FE20FF31FE055FC4F928381834FBFED
:100B4000DF91CF91FF90EF90DF90CF9008951F93AA
:100B5000CF93DF93EC01162F88818C3008F04EC0C4
:100B600061E0812F0E94C3028881282F30E0F901C3
:100B7000EE0FFF1FE20FF31FE055FC4F1F73608164
:100B8000607C612B608319821A822CE0622F0E94A4
:100B90004516829FB001112430E020E0AB01420FE6
:100BA000531FFA01EE0FFF1FE40FF51FE055FC4F36
:100BB000908196FD16C02F5F3F4F2C30310571F7A5
:100BC00081110FC01092800082E08093810010920A
:100BD000850010928400B19A80916F0082608093AA
:100BE0006F00E8818E2F90E0FC01EE0FFF1FE80FF1
:100BF000F91FE055FC4F8081806480838881DF91FC
:100C0000CF911F9108959091D4029111FCCF613240
:100C100008F060E291E09093D4029093D3022FEF1A
:100C20002093D2021092D102260F2093D0029093EB
:100C3000CF029091CF02880F892B8093CF028091B1
:100C4000CE02813019F51092CE028091CF028093AE
:100C5000BB008091BC0083FDF8CF85EC8093BC0085
:100C60008091D4028130E1F38091D102861710F493
:100C70006091D102AEEAB2E0E7EDF2E080E08613E7
:100C800007C01092D6028093D502089585EEE6CF74
:100C90009D9191938F5FF3CFCF93C82F8091FA03EB
:100CA000882309F18091FB0391E090938A0280935D
:100CB000AC0210928B021092AD026C2F84EA93E08A
:100CC0000E94BA040E948D008091FB0361E070E0F5
:100CD00090E00E94030684EA93E00E947A04C82F01
:100CE0008C2FCF91089560E08091F9030E946302F8
:100CF0002C2F20684091F7036091F8038091F60350
:100D00000E94D4032FEF4091F7036091F803809184
:100D1000F6030E94D403C82F61E08091F9030E947A
:100D20006302DECF0F931F93CF93DF93EC01162F57
:100D30008D85882341F18E8591E090938A0280937E
:100D4000AC0210928B021092AD0284EA93E00E94F2
:100D5000BA040E948D008E8562E070E090E00E94EF
:100D6000030684EA93E00E947A04C82F84EA93E0A1
:100D70000E947A0400E0182F0C2BC801DF91CF915C
:100D80001F910F91089560E08C850E946302212FCE
:100D9000206C4A856B8589850E94D4032FEF4A8594
:100DA0006B8589850E94D403082F2FEF4A856B85B8
:100DB00089850E94D403182F61E08C850E9463020C
:100DC000DCCFFC0101900020E9F73197AF01481B0F
:100DD000590BBC018BEF92E00C94ED008F929F9227
:100DE000AF92BF920F931F93CF93DF93CDB7DEB730
:100DF000A1970FB6F894DEBF0FBECDBF19A2423047
:100E000008F44AE08E010F5D1F4F842E912CB12C07
:100E1000A12CA50194010E949314E62FB901CA01E7
:100E2000EA30F4F4E05DD801EE938D01232B242BFE
:100E3000252B79F790E080E0109719F0CD010E9402
:100E4000E106A1960FB6F894DEBF0FBECDBFDF91CD
:100E5000CF911F910F91BF90AF909F908F90089569
:100E6000E95CE1CF0C94E1064F925F926F927F9222
:100E70008F929F92AF92BF92CF92DF92EF92FF92AA
:100E80000F931F93CF936B017C01742EAC019B01D8
:100E90000E944016882399F08DE491E0CF911F9134
:100EA0000F91FF90EF90DF90CF90BF90AF909F9009
:100EB0008F907F906F905F904F900C94E106460169
:100EC0005701E894B7F82FEF3FEF4FE75FE7C50111
:100ED000B4010E94401681110DC02FEF3FEF4FE784
:100EE0005FE7C501B4010E945F1318161CF481E589
:100EF00091E0D4CF2FEF3FEF4FE75FE4C701B6019A
:100F00000E943B1618161CF485E591E0C7CF2FEF21
:100F10003FEF4FE75FECC701B6010E945F1387FD0B
:100F2000F3CF20E030E0A901C701B6010E945F13B2
:100F300010E000E087FF0AC06DE28BEF92E00E94B4
:100F4000CD018C01F7FAF094F7F8F094C0E060E07E
:100F500070E080E09FE37C1641F020E030E040E26A
:100F600051E40E949A15CF5FF6CFA70196010E9427
:100F70002E152B013C010E940C164B015C014AE02E
:100F80000E94EE067C01E00EF11ECC23C1F1C501EA
:100F9000B4010E9464139B01AC01C301B2010E9421
:100FA0002D154B015C016EE28BEF92E00E94CD01AA
:100FB000E80EF91EC15018F120E030E040E251E4A3
:100FC000C501B4010E94C5132B013C010E940C16FF
:100FD0004B01B12CA12C4AE0C501B4010E94EE06E0
:100FE000E80EF91EC501B4010E9464139B01AC0117
:100FF000C301B2010E942D154B015C01DBCFC7017B
:10100000CF911F910F91FF90EF90DF90CF90BF9005
:10101000AF909F908F907F906F905F904F900895CA
:1010200042E00C943407CF93DF930E94E106EC0179
:1010300089E591E00E94E1068C0F9D1FDF91CF9121
:1010400008958F929F92AF92BF92CF92DF92EF92CC
:10105000FF920F931F93CF93DF937C01EB018A01E3
:101060006901FC01828593858130910591F0029799
:1010700009F44EC090E080E0DF91CF911F910F9175
:10108000FF90EF90DF90CF90BF90AF909F908F90A8
:101090000895868191E090938A028093AC02109229
:1010A0008B021092AD025B01060F171F4B018016D9
:1010B000910641F0F40161914F0184EA93E00E94AE
:1010C000BA04F5CF0E948D00882321F08CE591E0D1
:1010D0000E941308C114D10469F2B601F701868198
:1010E00097810E940306CC0DDD1D9091D502809161
:1010F000D602981709F4BECFAC16BD0609F4BACFD4
:1011000084EA93E00E947A04F50181935F01EDCFB8
:10111000232B19F0888180688883F7018085918569
:1011200097FD03C060E00E946302FE010C0F1D1FCB
:10113000DE01A017B10769F4CC0DDD1DCE17DF0766
:1011400081F01EBC00000DB407FEFDCF8EB581936B
:10115000F5CF8D918EBD00000DB407FEFDCF8EB58D
:10116000E8CFF7018085918597FD84CF61E00E94EB
:10117000630280CF1F93CF93DF93EC018A859B8519
:101180008130910531F00297D9F0DF91CF911F9115
:1011900008950E9491028E8191E090938A0280933B
:1011A000AC0210928B021092AD020E948D00882337
:1011B00061F38BE791E0DF91CF911F910C941308BD
:1011C0001FB7F89480916C02811127C0E0E9F0E02C
:1011D0008491E4EAF0E09491E82FF0E0EE0FFF1F35
:1011E000EE58FF4FA591B491EC91E92321F461E011
:1011F0008AE00E94630261E08AE00E94C3028CB52B
:1012000080618CBD8CB580648CBD61E08DE00E94F6
:10121000C30261E08BE00E94C30280916C028F5F89
:1012200080936C021FBF8885998597FD06C061E099
:10123000DF91CF911F910C94C30283EA91E0BBCF61
:10124000CF93DF93EC0188819981009711F00E9480
:101250001B17198218821D821C821B821A82DF9141
:10126000CF910895FC0180819181009711F00C9439
:101270001B1708950C941B170F931F93CF93DF93A5
:10128000EC0188819981009759F02A813B812617CA
:10129000370730F081E0DF91CF911F910F910895D2
:1012A0008B016F5F7F4F0E94A417009759F09983BD
:1012B00088831B830A832C813D81232B59F7FC01F2
:1012C0001082E8CF80E0E7CFCF93DF93EC0170E0AE
:1012D00060E00E943C09811105C0CE01DF91CF91F1
:1012E0000C9420091D821C8263E272E0888199813E
:1012F000DF91CF910C946A180F931F93CF93DF93D4
:101300008C01EB0188E2FB0111928A95E9F74BE031
:1013100050E066EE71E0CE010E9471181B8681E0FC
:1013200090E0A0E0B0E08C879D87AE87BF87F80192
:101330004381548165817681488B598B6A8B7B8B85
:101340008C8B9D8BAE8BBF8B1CA21DA21EA21FA2DD
:101350008AE098EEACE1B3EC888F998FAA8FBB8FAF
:101360008AE098EEACE1B3E48C8F9D8FAE8FBF8F97
:1013700083EA9FEAA0E2BDE388A399A3AAA3BBA343
:10138000DF91CF911F910F9108950F931F93CF93EA
:10139000DF938C01EB01FB01349680E2DF011D92AB
:1013A0008A95E9F784E290E0A0E0B0E08883998331
:1013B000AA83BB83F80183819481A581B6818C8344
:1013C0009D83AE83BF8381E090E0A0E0B0E088879A
:1013D0009987AA87BB87188A198A1A8A1B8A62E3A7
:1013E000C8010E949206BC01990F880B990B0E94BC
:1013F00066132FE632E143E85BE30E94C5132AE05F
:1014000038EE4CE151E40E94C5136C8B7D8B8E8BC2
:101410009F8B64E3C8010E949206BC01990F880B60
:10142000990B0E9466132FE632E143E85BE30E94CA
:10143000C5132AE038EE4CE151E40E94C513688FD1
:10144000798F8A8F9B8F66E3C8010E949206BC0148
:10145000990F880B990B0E9466132FE632E143E83F
:101460005BE30E94C5132AE038EE4CE151E40E9490
:10147000C5136C8F7D8F8E8F9F8F81E0DF91CF9111
:101480001F910F9108951F920F920FB60F92112482
:101490002F933F934F935F936F937F938F939F937C
:1014A000AF93BF93EF93FF938BEF92E00E94AB015A
:1014B000FF91EF91BF91AF919F918F917F916F912C
:1014C0005F914F913F912F910F900FBE0F901F9002
:1014D00018951F920F920FB60F9211242F938F938E
:1014E0009F93EF93FF93E0910B03F0910C038081A6
:1014F000E0911103F091120382FD1BC09081809155
:1015000014038F5F8F7320911503821741F0E091D0
:101510001403F0E0E550FD4F958F80931403FF9185
:10152000EF919F918F912F910F900FBE0F901F9071
:1015300018958081F4CF1F920F920FB60F9211244D
:101540002F933F938F939F93AF93BF938091F70215
:101550009091F802A091F902B091FA0230916D02D7
:1015600023E0230F2D3758F50196A11DB11D2093BF
:101570006D028093F7029093F802A093F902B09362
:10158000FA0280916E0290916F02A0917002B09168
:1015900071020196A11DB11D80936E0290936F029E
:1015A000A0937002B0937102BF91AF919F918F9100
:1015B0003F912F910F900FBE0F901F90189526E826
:1015C000230F0296A11DB11DD2CF1F920F920FB60D
:1015D0000F9211242F933F934F935F936F937F93B9
:1015E0008F939F93AF93BF93EF93FF93E09102018B
:1015F000F09103010995FF91EF91BF91AF919F91F8
:101600008F917F916F915F914F913F912F910F90AB
:101610000FBE0F901F9018951F920F920FB60F924A
:1016200011242F933F934F935F936F937F938F93E7
:101630009F93AF93BF93EF93FF93E0910001F091DD
:1016400001010995FF91EF91BF91AF919F918F910A
:101650007F916F915F914F913F912F910F900FBEAE
:101660000F901F9018951F920F920FB60F92112492
:101670002F933F934F935F936F937F938F939F939A
:10168000AF93BF93EF93FF938091B900887F80362B
:1016900009F44AC0F0F5883209F4A7C018F5803182
:1016A00009F49BC0B8F4882309F4F9C0883009F420
:1016B00094C0FF91EF91BF91AF919F918F917F91D6
:1016C0006F915F914F913F912F910F900FBE0F90AF
:1016D0001F901895883109F488C0803251F78093A3
:1016E000D20214C0803409F49DC040F48033B9F3B1
:1016F0008833F9F68093D20285ECB0C0803509F4C6
:1017000085C0883509F496C0883499F60E943A0459
:10171000D0CF883909F48CC038F5883729F050F4D7
:10172000883611F0803729F683E08093D402109236
:101730006B0257C0883809F47BC0803919F08038B3
:1017400009F0B7CF80916B02803208F071C0E09150
:101750006B0281E08E0F80936B028091BB00F0E002
:10176000E55BFD4F80833DC0803B39F0E0F4803A7B
:1017700009F479C0883A09F09CCF84E08093D402C0
:1017800010924A0210924902E0918802F091890277
:1017900009958091490281110FC081E0809349022F
:1017A0001092290209C0803C09F4A6CF883C09F4B4
:1017B000A3CF883B09F07DCFE0914A0281E08E0FF4
:1017C00080934A02F0E0E75DFD4F80818093BB008B
:1017D00090914A028091490229C08091CF02809362
:1017E000BB0085EC8093BC0064CF9091D1028091C6
:1017F000D002981758F5E091D10281E08E0F8093C6
:10180000D102F0E0E255FD4F8081E9CFE091D102B5
:1018100081E08E0F8093D1028091BB00F0E0E25511
:10182000FD4F80839091D1028091D0029817C8F229
:1018300085E8D8CFE091D10281E08E0F8093D1026C
:101840008091BB00F0E0E255FD4F80838091D30290
:1018500081115CCF81E08093CE0284EA8093BC004A
:101860001092D40226CF85EC8093BC001092D40253
:1018700080916B02803230F4E0916B02F0E0E55B26
:10188000FD4F108260916B0270E0E0918602F09152
:1018900087028BE492E0099510926B020ACF1092B6
:1018A000D20234CF1F920F920FB60F9211242F93B2
:1018B0003F934F935F936F937F938F939F93AF93D8
:1018C000BF93CF93DF93EF93FF9380912802C09152
:1018D000D403D0E087FF24C01092850010928400CA
:1018E000809128028F5F8093280280912802082E21
:1018F000000C990B8C179D0724F4809128028C30E2
:10190000C4F18091840090918500049680349C49B4
:1019100008F47AC08091840090918500049676C086
:1019200080912802082E000C990B8C179D07C4F695
:10193000E09128028E2FEE0F990BFC01EE0FFF1F96
:10194000E80FF91FE055FC4F808186FFC9CFE09179
:1019500028028E2FEE0F990BFC01EE0FFF1FE80FF0
:10196000F91FE055FC4F808160E08F730E94630295
:10197000B7CF2091840030918500E09128028E2F0E
:10198000EE0F990BFC01EE0FFF1FE80FF91FE0555A
:10199000FC4F81819281820F931F909389008093E5
:1019A0008800E09128028E2FEE0F990BFC01EE0FBC
:1019B000FF1FE80FF91FE055FC4F808186FF11C023
:1019C000E09128028E2FEE0F990BFC01EE0FFF1F06
:1019D000E80FF91FE055FC4F808161E08F730E9492
:1019E0006302FF91EF91DF91CF91BF91AF919F91F2
:1019F0008F917F916F915F914F913F912F910F90B8
:101A00000FBE0F901F90189580E49CE99093890079
:101A1000809388008FEF80932802E3CF1092FE021C
:101A20001092FD0248EE53E060E070E04093FF0248
:101A300050930003609301037093020385E191E0EA
:101A40009093FC028093FB0285EC90E09093080356
:101A50008093070384EC90E090930A03809309033A
:101A600080EC90E090930C0380930B0381EC90E06A
:101A700090930E0380930D0382EC90E090931003FB
:101A800080930F0386EC90E09093120380931103F0
:101A9000109214031092150310921603109217035C
:101AA00087E291E090939903809398038FEF9FEFE3
:101AB00090939D0380939C0390939F0380939E0338
:101AC0009093A1038093A0031092A7031092A60302
:101AD0004093A8035093A9036093AA037093AB03A8
:101AE00081E391E09093A5038093A40383E491E0C4
:101AF0009093EE038093ED0389E390E3A0E0B0E0E0
:101B00008093F0039093F103A093F203B093F30357
:101B10001092F5031092F40381E08093FA0310927F
:101B2000E8031092E7031092EA031092E90310927F
:101B3000EC031092EB0387EE93E00E946409E5ED5D
:101B4000F3E027EE33E04FEF68EB7BE08091D403C6
:101B50008C30B0F491E0980F9093D403808390E0A0
:101B6000DC01AA0FBB1FA80FB91FA055BC4F1296CE
:101B70007C936E93119733962E173F0739F708958C
:101B80004083F9CFCF93DF93CDB7DEB7AA970FB6D7
:101B9000F894DEBF0FBECDBF789484B5826084BD5B
:101BA00084B5816084BD85B5826085BD85B5816061
:101BB00085BD80916E00816080936E0010928100DF
:101BC000809181008260809381008091810081609A
:101BD000809381008091800081608093800080915B
:101BE000B10084608093B1008091B00081608093E7
:101BF000B00080917A00846080937A0080917A00AE
:101C0000826080937A0080917A00816080937A006C
:101C100080917A00806880937A001092C100E091F0
:101C20000B03F0910C0382E08083E0910703F091B5
:101C300008031082E0910903F0910A0387E680838C
:101C400010921303E0910F03F091100386E080835C
:101C5000E0910D03F0910E03808180618083E0911B
:101C60000D03F0910E03808188608083E0910D0365
:101C7000F0910E03808180688083E0910D03F091E4
:101C80000E0380818F7D808369E070E085ED93E0B5
:101C90000E94A7056BE070E088ED93E00E94A70525
:101CA00063E070E08BED93E00E94A7056AE070E0CE
:101CB0008EED93E00E94A70565E070E081EE93E071
:101CC0000E94A70566E070E084EE93E00E94A705FD
:101CD000F0E16F2EF1E07F2EA9E7CA2EA2E0DA2E06
:101CE000B3E7AB2EB2E0BB2E15EDE12E13E0F12EE3
:101CF0000FE7802E02E0902E0AE011E0F8018191BA
:101D00008F01EAE55E2E580EF40151924F01652DC8
:101D100070E0C7010E942B05F50151925F01F601A9
:101D200051926F016AE070E080E090E00E94190338
:101D3000F3E0EF0EF11C6016710601F783E5809366
:101D4000FB038091FA03882361F00E94910280E0F6
:101D50000E944C06853E21F18EEE91E00E94130810
:101D6000FFCF61E08091F9030E94C30261E080919E
:101D7000F9030E94630261E08091F6030E94C302AE
:101D800061E08091F6030E94630261E08091F703B5
:101D90000E94C30260E08091F8030E94C302D7CF83
:101DA00068E08DE20E94E90481E30E944C06807F96
:101DB000682F686081E30E94E9041092F503109295
:101DC000F403BE016F5F7F4F8DEE93E00E94C50963
:101DD00081E090E09093A3038093A20388E690E0D3
:101DE00090939F0380939E0310929D0310929C03F7
:101DF00088E993E00E94BA088FE78DA321E030E0E4
:101E000041E050E0BE016B5D7F4F88E993E00E94A6
:101E10004D0366EB8EE70E948F0361E070E080E087
:101E200090E00E9419036FE788E993E00E94A603FF
:101E300061E070E080E090E00E94190361E18EE7CC
:101E40000E948F0361E070E080E090E00E9419033F
:101E500063E088E993E00E94A60390E074E0959522
:101E600087957A95E1F78370813061F765E18EE7B8
:101E70000E948F0361E070E080E090E00E9419030F
:101E800063E088E993E00E94A60390E0959587952A
:101E9000959587958370813069F783E00E94BA0336
:101EA00061E488E993E00E94A603807F682F636065
:101EB00081E40E948F036FEF85E50E948F0360EF3E
:101EC00086E50E948F0360E087E50E948F0360E053
:101ED00088E993E00E94A60360E088E993E00E940D
:101EE000A60383E00E94BA03AE014B5D5F4FBE01C3
:101EF000695D7F4FCE0189960E94540369A57AA53A
:101F0000072E000C880B990B0E94661320E030E02E
:101F10004AE753E40E94C51320E030E040E058E374
:101F20000E94C5136B017C016FA178A5072E000CE0
:101F3000880B990B0E94661320E030E04AE753E4D7
:101F40000E94C51320E030E040E058E30E94C51332
:101F50004B015C016DA17EA1072E000C880B990B33
:101F60000E94661320E030E04AE753E40E94C51364
:101F700020E030E040E058E30E94C5132B013C0113
:101F800080E292E00E9432076D897E898F89988D68
:101F90000E94100882E292E00E943207698D7A8DD9
:101FA0008B8D9C8D0E94100882E292E00E94320785
:101FB0006D8D7E8D8F8D98A10E94100882E292E037
:101FC0000E943207C701B6010E94100882E292E027
:101FD0000E943207C501B4010E94100882E292E01B
:101FE0000E94320742E0C301B2010E94340789E532
:101FF00091E00E94E1065FE7252E52E0352E10E0C9
:1020000000E00E943D0197FD26C2F801EC5DFD4F06
:102010002081022E000C330B28173907A1F001157F
:10202000110579F331972081022E000C330B51E01A
:1020300040E02817390709F050E0052F142FE1CFB1
:1020400001E010E0DECF01301105D1F71A821982CC
:102050001C821B821E821D82CE0101960E94640991
:102060000E943D0197FD1BC08DA31EA20D811E8104
:102070000F5F1F4FB801CE0101960E943C098823D3
:1020800079F329813A818D819E81BE016B5D7F4FFD
:10209000820F931F0E946A181E830D83E1CF8091E7
:1020A000E7039091E80369817A81009709F410C1F0
:1020B0006115710509F40AC14091E9035091EA03E1
:1020C0002D813E814217530708F400C10E946A180F
:1020D0008D819E819093EC038093EB031E821D8281
:1020E000CE0101960E9432093FE7632E32E0732E43
:1020F0004AE0A42E41E0B42E10E000E0680132E096
:10210000C30ED11C4601C016D10610F0480186014D
:102110001A8219821C821B821E821D82CE010196A8
:102120000E946409E090EB03F090EC038E149F048E
:1021300080F50E151F0508F47801E091E703F09192
:10214000E803EE0DFF1D508010820091E70310910F
:10215000E803080D191D0115110579F0F80101902A
:102160000020E9F731974F01801A910AB401CE019E
:1021700001960E943C098111C2C0CE0101960E94C5
:1021800020098091E7039091E803E80EF91EF7011A
:1021900050828D819E81892B21F089819A810097BF
:1021A00021F41092720282E792E040E150E070E088
:1021B00060E00E943C12F50181915F01680FF3011C
:1021C00061933F01CE0101960E94320986010E30D3
:1021D000110509F093CF9091790280917F029813B5
:1021E0001FC090917A0280918002981319C090913B
:1021F0007B0280918102981313C09091820280919A
:102200007C0298130DC09091830280917D029813F7
:1022100007C09091840280917E02981709F484C0CF
:1022200085EDC82E83E0D82E09E712E09FE7A92E9E
:1022300092E0B92E23E7E22E22E0F22EF70161911F
:102240007F01F50141915F016417A1F1F80120813F
:10225000421781F150E0E22FF0E0E41BF50B34E689
:102260003E9FC0013F9F900D112470E0641B750BD1
:1022700077FF03C07195619571090E945116CB01DA
:10228000161617060CF045C04A97C19708F03FC0D4
:1022900062337105E1F12250F8012083608170E022
:1022A000C6010E942B056091850270E090E080E0FD
:1022B0000E9419030F5F1F4FF3E0CF0ED11C89E777
:1022C00092E08E159F0509F0B9CF85CF0E941B17AC
:1022D00089819A819093E8038093E7038B819C81A5
:1022E0009093EA038093E9038D819E819093EC03A0
:1022F0008093EB031A8219821C821B82EFCE9E828E
:102300008D82B80189819A810E946A183ACF215042
:10231000C3CF865B9F4FC19728F46E3C7F4F11F06F
:102320002E5FBACF2F5FB8CFA3E7B2E0E9E7F2E0C4
:1023300081918D932E163F06D9F7BE016F5F7F4FB7
:102340008DEE93E00E94C509AE014B5D5F4FBE016B
:10235000695D7F4FCE0189960E94540369A57AA5D5
:10236000072E000C880B990B0E94661320E030E0CA
:102370004AE753E40E94C51320E030E040E058E310
:102380000E94C5132B013C016FA178A5072E000CFC
:10239000880B990B0E94661320E030E04AE753E473
:1023A0000E94C51320E030E040E058E30E94C513CE
:1023B0004B015C016DA17EA1072E000C880B990BCF
:1023C0000E94661320E030E04AE753E40E94C51300
:1023D00020E030E040E058E30E94C5136B017C012F
:1023E00080E292E00E9432076D897E898F89988D04
:1023F0000E94100882E292E00E943207698D7A8D75
:102400008B8D9C8D0E94100882E292E00E94320720
:102410006D8D7E8D8F8D98A10E94100882E292E0D2
:102420000E943207C301B2010E94100882E292E0CA
:102430000E943207C501B4010E94100882E292E0B6
:102440000E94320742E0C701B6010E94340789E5C5
:1024500091E00E94E106E0E0F0E0EF2B09F4CFCD3F
:102460000E949701882309F4CACD0E940000C7CDBD
:1024700087EE93E00C943209B0E0A0E0E2E4F2E1F0
:102480000C94E8145C016B017A016115710519F077
:10249000FB0191838083E114F10451F0C70102979D
:1024A000839730F040E030E020E090E072C05E01C1
:1024B000E5012196F5011081812F90E00E945313D0
:1024C000892BA9F71D3201F52196F501118101E053
:1024D000E114F10409F4DAC0F0E1EF16F10409F0B7
:1024E00082C0103359F488818F7D883509F076C019
:1024F000198122960260F0E1EF2EF12C812C912CB3
:10250000A12C88E0B82E8CC01B3221F4E501229664
:10251000F501118100E0DCCFEAE0EE16F10409F4E8
:10252000BBC0F0E1EF16F10409F06DC0E7CF78E031
:10253000E72EF12C812C912CA12C60E1B62E70C0DD
:102540003FE9310F3A3128F439EA332E80C021E0D7
:102550009AC0302F3170C114D10431F0222309F117
:102560002197F601D183C08327FF21C060E070E08E
:1025700080E090E8311104C06FEF7FEF8FEF9FE7AD
:1025800022E230E03093FD032093FC03462F372FE7
:10259000282F642F732F822FCDB7DEB7E1E10C9483
:1025A000041501FF04C02297F601D183C0833323B1
:1025B00041F090958095709561957F4F8F4F9F4F1B
:1025C000E5CF97FFE3CF82E290E09093FD03809305
:1025D000FC036FEF7FEF8FEF9FE7D8CF10E3E1149D
:1025E000F10409F4A4CF28E0E216F10409F4A2CF23
:1025F0000CF092CF812C912CA12CE0E4BE2E82E035
:10260000E816F10469F060E070E080E090E897017E
:102610000F2C000C440B550B0E94931449015A01D6
:1026200020E060E070E0CB0127010F2C000C660871
:102630007708FE0150ED352E310E39E0331540F4A8
:102640003FEB310F3A3108F07BCF49EC342E310E9D
:102650003E141F040CF07DCF27FD15C0861697068B
:10266000A806B90678F0A30192010E948314630DB5
:10267000711D811D911D61307105810520E8920752
:1026800008F465CF2FEF21961081D3CF103309F4D2
:102690002ACF2AE0E22EF12C9CEC892E982CA82C33
:1026A0009CE0B92EBDCF91110C945C13803219F0CF
:1026B00089508550C8F708959927882708950E9462
:1026C000A11308F481E00895E89409C097FB3EF453
:1026D00090958095709561957F4F8F4F9F4F99236F
:1026E000A9F0F92F96E9BB279395F69587957795ED
:1026F0006795B795F111F8CFFAF4BB0F11F460FFAD
:102700001BC06F5F7F4F8F4F9F4F16C0882311F004
:1027100096E911C0772321F09EE8872F762F05C018
:10272000662371F096E8862F70E060E02AF09A95B3
:10273000660F771F881FDAF7880F9695879597F9A8
:102740000895990F0008550FAA0BE0E8FEEF161642
:102750001706E807F907C0F012161306E407F50795
:1027600098F0621B730B840B950B39F40A2661F009
:10277000232B242B252B21F408950A2609F4A140AC
:10278000A6958FEF811D811D08950E94D8130C948A
:1027900049140E943B1438F00E94421420F0952303
:1027A00011F00C9432140C94381411240C947D14F0
:1027B0000E945A1470F3959FC1F3950F50E0551F76
:1027C000629FF001729FBB27F00DB11D639FAA2786
:1027D000F00DB11DAA1F649F6627B00DA11D661FD5
:1027E000829F2227B00DA11D621F739FB00DA11DF6
:1027F000621F839FA00D611D221F749F3327A00DB0
:10280000611D231F849F600D211D822F762F6A2F4B
:1028100011249F5750409AF0F1F088234AF0EE0FB0
:10282000FF1FBB1F661F771F881F91505040A9F7DD
:102830009E3F510580F00C9432140C947D145F3F40
:10284000E4F3983ED4F3869577956795B795F79519
:10285000E7959F5FC1F7FE2B880F911D9695879591
:1028600097F9089597F99F6780E870E060E0089510
:102870009FEF80EC089500240A9416161706180698
:102880000906089500240A94121613061406050674
:102890000895092E0394000C11F4882352F0BB0F05
:1028A00040F4BF2B11F460FF04C06F5F7F4F8F4F68
:1028B0009F4F089557FD9058440F551F59F05F3FA3
:1028C00071F04795880F97FB991F61F09F3F79F052
:1028D00087950895121613061406551FF2CF4695D4
:1028E000F1DF08C0161617061806991FF1CF869556
:1028F0007105610508940895E894BB27662777273A
:10290000CB0197F90895DB018F939F930E94D41414
:10291000BF91AF91A29F800D911DA39F900DB29F7B
:10292000900D11240895A1E21A2EAA1BBB1BFD01D4
:102930000DC0AA1FBB1FEE1FFF1FA217B307E4079E
:10294000F50720F0A21BB30BE40BF50B661F771FF6
:10295000881F991F1A9469F76095709580959095D6
:102960009B01AC01BD01CF010895052E97FB1EF41C
:1029700000940E94CC1457FD07D00E94931407FCCA
:1029800003D04EF40C94CC1450954095309521957D
:102990003F4F4F4F5F4F089590958095709561958B
:1029A0007F4F8F4F9F4F08950E941E15A59F900D3A
:1029B000B49F900DA49F800D911D11240895B7FF21
:1029C0000C94D4140E94D414821B930B08952F925C
:1029D0003F924F925F926F927F928F929F92AF92AF
:1029E000BF92CF92DF92EF92FF920F931F93CF93FC
:1029F000DF93CDB7DEB7CA1BDB0B0FB6F894DEBF93
:102A00000FBECDBF09942A88398848885F846E84B8
:102A10007D848C849B84AA84B984C884DF80EE8002
:102A2000FD800C811B81AA81B981CE0FD11D0FB60B
:102A3000F894DEBF0FBECDBFED010895A29FB00197
:102A4000B39FC001A39F700D811D1124911DB29FE2
:102A5000700D811D1124911D08955058BB27AA2780
:102A60000E9445150C9449140E943B1438F00E94B2
:102A7000421420F039F49F3F19F426F40C943814D2
:102A80000EF4E095E7FB0C943214E92F0E945A14DF
:102A900058F3BA17620773078407950720F079F493
:102AA000A6F50C947C140EF4E0950B2EBA2FA02DF5
:102AB0000B01B90190010C01CA01A0011124FF27EB
:102AC000591B99F0593F50F4503E68F11A16F040E6
:102AD000A22F232F342F4427585FF3CF46953795E5
:102AE0002795A795F0405395C9F77EF41F16BA0BAA
:102AF000620B730B840BBAF09150A1F0FF0FBB1F58
:102B0000661F771F881FC2F70EC0BA0F621F731FA0
:102B1000841F48F4879577956795B795F7959E3FFD
:102B200008F0B0CF9395880F08F09927EE0F97958E
:102B3000879508950E94AE150C9449140E94421482
:102B400058F00E943B1440F029F45F3F29F00C94A8
:102B5000321451110C947D140C9438140E945A14A0
:102B600068F39923B1F3552391F3951B550BBB27BC
:102B7000AA2762177307840738F09F5F5F4F220F01
:102B8000331F441FAA1FA9F335D00E2E3AF0E0E8F8
:102B900032D091505040E695001CCAF72BD0FE2F42
:102BA00029D0660F771F881FBB1F261737074807D6
:102BB000AB07B0E809F0BB0B802DBF01FF2793588E
:102BC0005F4F3AF09E3F510578F00C9432140C940C
:102BD0007D145F3FE4F3983ED4F38695779567952F
:102BE000B795F7959F5FC9F7880F911D96958795C3
:102BF00097F90895E1E0660F771F881FBB1F6217E2
:102C000073078407BA0720F0621B730B840BBA0B9F
:102C1000EE1F88F7E09508950E94621488F09F5790
:102C200098F0B92F9927B751B0F0E1F0660F771FF0
:102C3000881F991F1AF0BA95C9F714C0B13091F0E6
:102C40000E947C14B1E008950C947C14672F782FB7
:102C50008827B85F39F0B93FCCF3869577956795AB
:102C6000B395D9F73EF490958095709561957F4F17
:102C70008F4F9F4F08950E94A11308F48FEF08957E
:102C80000E94A113880B990B0895991B79E004C049
:102C9000991F961708F0961B881F7A95C9F780959B
:102CA000089597FB072E16F4009407D077FD09D0FE
:102CB0000E94651607FC05D03EF4909581959F4FC4
:102CC0000895709561957F4F0895AA1BBB1B51E134
:102CD00007C0AA1FBB1FA617B70710F0A61BB70B8C
:102CE000881F991F5A95A9F780959095BC01CD0131
:102CF0000895EE0FFF1F0590F491E02D09940F93B6
:102D00001F93CF93DF938230910510F482E090E01F
:102D1000E0910004F091010430E020E0B0E0A0E098
:102D2000309799F42115310509F44AC0281B390B55
:102D300024303105D8F58A819B816115710589F1AF
:102D4000FB0193838283FE0111C040815181028186
:102D5000138148175907E0F04817590799F410975D
:102D600061F012960C93129713961C933296CF0132
:102D7000DF91CF911F910F9108950093000410935C
:102D80000104F4CF2115310551F04217530738F0F3
:102D9000A901DB019A01BD01DF01F801C1CFEF01FB
:102DA000F9CF9093010480930004CDCFFE01E20F90
:102DB000F31F819391932250310939832883D7CF10
:102DC0002091FE033091FF03232B41F42091060153
:102DD000309107013093FF032093FE0320910401FB
:102DE000309105012115310541F42DB73EB74091D1
:102DF000080150910901241B350BE091FE03F0916D
:102E0000FF03E217F307A0F42E1B3F0B2817390727
:102E100078F0AC014E5F5F4F2417350748F04E0F36
:102E20005F1F5093FF034093FE03819391939FCFC5
:102E3000F0E0E0E09CCFCF93DF930097E9F0FC0156
:102E4000329713821282A0910004B0910104ED0127
:102E500030E020E01097A1F420813181820F931F90
:102E60002091FE033091FF032817390709F061C054
:102E7000F093FF03E093FE03DF91CF910895EA0101
:102E8000CE17DF07E8F54A815B819E0141155105A8
:102E9000B1F7E901FB83EA8349915991C40FD51F2A
:102EA000EC17FD0761F4808191810296840F951FD4
:102EB000E90199838883828193819B838A83F0E0EF
:102EC000E0E012968D919C9113970097B9F52D91A2
:102ED0003C911197CD010296820F931F2091FE0322
:102EE0003091FF032817390739F6309751F51092C2
:102EF000010410920004B093FF03A093FE03BCCF23
:102F0000D383C28340815181840F951FC817D9078D
:102F100061F44E5F5F4F88819981480F591F51833B
:102F200040838A819B81938382832115310509F037
:102F3000B0CFF0930104E09300049ECFFD01DC01CB
:102F4000C0CF13821282D7CFB0E0A0E0EAEAF7E167
:102F50000C94E9148C01009751F4CB010E947F1668
:102F60008C01C801CDB7DEB7E0E10C940515FC017A
:102F7000E60FF71F9C0122503109E217F30708F40E
:102F80009DC0D901CD91DC911197C617D70798F054
:102F9000C530D10530F3CE0104978617970708F3A3
:102FA000C61BD70B2297C193D1936D937C93CF010E
:102FB0000E941B17D6CF5B01AC1ABD0A4C018C0EC8
:102FC0009D1EA0910004B0910104512C412CF12CC4
:102FD000E12C109731F58091FE039091FF03881545
:102FE000990509F05CC04616570608F058C0809154
:102FF000040190910501009741F48DB79EB740916F
:10300000080150910901841B950BE817F90708F096
:1030100055C0F093FF03E093FE03F90171836083D1
:10302000A0CF8D919C91119712966C901297139648
:103030007C901397A815B90559F56C0142E0C40EB0
:10304000D11CCA14DB0420F1AC014A195B09DA0176
:103050001296159780F06282738251834083D90162
:103060006D937C93E114F10471F0D7011396FC93F6
:10307000EE93129776CF22968C0F9D1FF9019183C4
:103080008083F301EFCFF0930104E093000469CF54
:103090004816590608F42C017D01D3019ACFCB01C3
:1030A0000E947F167C01009749F0AE01B8010E9492
:1030B0006118C8010E941B17870153CF10E000E080
:1030C00050CFFB01DC0102C001900D9241505040F5
:1030D000D8F70895FB01DC0101900D920020E1F783
:1030E0000895FB01DC014150504048F001900D92E1
:1030F0000020C9F701C01D9241505040E0F70895EB
:1031000010E0C2E6D0E004C0FE010E9479162196CC
:0A311000C336D107C9F7F894FFCFCA
:10311A004C034C030000020480000804000A030761
:10312A000000000000CD01ED001A011A028B0129EE
:10313A00017D01000000004D03BA082108000000CB
:10314A0000BA048D042805CB03CC037A046B04006F
:10315A00000000D3033A093904C5097C096E616E7F
:10316A0000696E66006F7666000D0A00576972651F
:10317A002E656E645472616E736D697373696F6ED6
:10318A002829206661696C65642E00424D493136F2
:10319A003047656E436C6173733A3A6932635F69AB
:1031AA006E697428293A20493243206661696C6540
:1031BA00642E00424D4931363047656E436C617367
:1031CA00733A3A7370695F696E697428293A2057AD
:1031DA0041524E494E473A204E6F2063686970202B
:1031EA0073656C6563742070696E207370656369BA
:1031FA00666965642E004144584C333435004F6F7C
:10320A006F70732C206E6F204144584C3334352034
:10321A006465746563746564202E2E2E2043686588
:10322A00636B20796F757220776972696E67210006
:08323A003E000900696E00006E
:00000001FF
